{
  "contractName": "Airdrop",
  "abi": [
    {
      "constant": false,
      "inputs": [],
      "name": "unpause",
      "outputs": [],
      "payable": false,
      "stateMutability": "nonpayable",
      "type": "function"
    },
    {
      "constant": false,
      "inputs": [],
      "name": "toggle",
      "outputs": [],
      "payable": false,
      "stateMutability": "nonpayable",
      "type": "function"
    },
    {
      "constant": true,
      "inputs": [],
      "name": "whitelistToggle",
      "outputs": [
        {
          "name": "",
          "type": "bool"
        }
      ],
      "payable": false,
      "stateMutability": "view",
      "type": "function"
    },
    {
      "constant": true,
      "inputs": [
        {
          "name": "account",
          "type": "address"
        }
      ],
      "name": "isWhiteListed",
      "outputs": [
        {
          "name": "",
          "type": "bool"
        }
      ],
      "payable": false,
      "stateMutability": "view",
      "type": "function"
    },
    {
      "constant": false,
      "inputs": [
        {
          "name": "account",
          "type": "address"
        }
      ],
      "name": "removeWhitelist",
      "outputs": [
        {
          "name": "",
          "type": "bool"
        }
      ],
      "payable": false,
      "stateMutability": "nonpayable",
      "type": "function"
    },
    {
      "constant": false,
      "inputs": [],
      "name": "pause",
      "outputs": [],
      "payable": false,
      "stateMutability": "nonpayable",
      "type": "function"
    },
    {
      "constant": false,
      "inputs": [],
      "name": "untoggle",
      "outputs": [],
      "payable": false,
      "stateMutability": "nonpayable",
      "type": "function"
    },
    {
      "constant": true,
      "inputs": [],
      "name": "owner",
      "outputs": [
        {
          "name": "",
          "type": "address"
        }
      ],
      "payable": false,
      "stateMutability": "view",
      "type": "function"
    },
    {
      "constant": false,
      "inputs": [
        {
          "name": "_newOwner",
          "type": "address"
        }
      ],
      "name": "changeOwner",
      "outputs": [
        {
          "name": "success",
          "type": "bool"
        }
      ],
      "payable": false,
      "stateMutability": "nonpayable",
      "type": "function"
    },
    {
      "constant": true,
      "inputs": [],
      "name": "isPaused",
      "outputs": [
        {
          "name": "",
          "type": "bool"
        }
      ],
      "payable": false,
      "stateMutability": "view",
      "type": "function"
    },
    {
      "constant": false,
      "inputs": [
        {
          "name": "account",
          "type": "address"
        }
      ],
      "name": "addWhitelist",
      "outputs": [
        {
          "name": "",
          "type": "bool"
        }
      ],
      "payable": false,
      "stateMutability": "nonpayable",
      "type": "function"
    },
    {
      "inputs": [],
      "payable": false,
      "stateMutability": "nonpayable",
      "type": "constructor"
    },
    {
      "anonymous": false,
      "inputs": [
        {
          "indexed": true,
          "name": "to",
          "type": "address"
        },
        {
          "indexed": false,
          "name": "value",
          "type": "uint256"
        },
        {
          "indexed": false,
          "name": "timestamp",
          "type": "uint256"
        }
      ],
      "name": "GivenAirdrop",
      "type": "event"
    },
    {
      "anonymous": false,
      "inputs": [
        {
          "indexed": true,
          "name": "from",
          "type": "address"
        },
        {
          "indexed": false,
          "name": "value",
          "type": "uint256"
        },
        {
          "indexed": false,
          "name": "timestamp",
          "type": "uint256"
        }
      ],
      "name": "AmountChanged",
      "type": "event"
    },
    {
      "anonymous": false,
      "inputs": [
        {
          "indexed": true,
          "name": "from",
          "type": "address"
        },
        {
          "indexed": true,
          "name": "newAddress",
          "type": "address"
        },
        {
          "indexed": false,
          "name": "timestamp",
          "type": "uint256"
        }
      ],
      "name": "TokenChanged",
      "type": "event"
    },
    {
      "anonymous": false,
      "inputs": [
        {
          "indexed": true,
          "name": "from",
          "type": "address"
        },
        {
          "indexed": false,
          "name": "value",
          "type": "uint256"
        },
        {
          "indexed": false,
          "name": "timestamp",
          "type": "uint256"
        }
      ],
      "name": "OwnerWithdrawn",
      "type": "event"
    },
    {
      "anonymous": false,
      "inputs": [
        {
          "indexed": false,
          "name": "account",
          "type": "address"
        }
      ],
      "name": "Whitelisted",
      "type": "event"
    },
    {
      "anonymous": false,
      "inputs": [
        {
          "indexed": false,
          "name": "account",
          "type": "address"
        }
      ],
      "name": "UnWhitelisted",
      "type": "event"
    },
    {
      "anonymous": false,
      "inputs": [
        {
          "indexed": false,
          "name": "sender",
          "type": "address"
        },
        {
          "indexed": false,
          "name": "timestamp",
          "type": "uint256"
        }
      ],
      "name": "ToggleWhitelist",
      "type": "event"
    },
    {
      "anonymous": false,
      "inputs": [
        {
          "indexed": false,
          "name": "sender",
          "type": "address"
        },
        {
          "indexed": false,
          "name": "timestamp",
          "type": "uint256"
        }
      ],
      "name": "UntoggleWhitelist",
      "type": "event"
    },
    {
      "anonymous": false,
      "inputs": [
        {
          "indexed": false,
          "name": "_owner",
          "type": "address"
        },
        {
          "indexed": false,
          "name": "_timestamp",
          "type": "uint256"
        }
      ],
      "name": "Pause",
      "type": "event"
    },
    {
      "anonymous": false,
      "inputs": [
        {
          "indexed": false,
          "name": "_owner",
          "type": "address"
        },
        {
          "indexed": false,
          "name": "_timestamp",
          "type": "uint256"
        }
      ],
      "name": "Unpause",
      "type": "event"
    },
    {
      "constant": true,
      "inputs": [],
      "name": "token",
      "outputs": [
        {
          "name": "",
          "type": "address"
        }
      ],
      "payable": false,
      "stateMutability": "view",
      "type": "function"
    },
    {
      "constant": true,
      "inputs": [],
      "name": "amount",
      "outputs": [
        {
          "name": "",
          "type": "uint256"
        }
      ],
      "payable": false,
      "stateMutability": "view",
      "type": "function"
    },
    {
      "constant": true,
      "inputs": [],
      "name": "totalAirdrops",
      "outputs": [
        {
          "name": "",
          "type": "uint256"
        }
      ],
      "payable": false,
      "stateMutability": "view",
      "type": "function"
    },
    {
      "constant": true,
      "inputs": [],
      "name": "remainingTokens",
      "outputs": [
        {
          "name": "",
          "type": "uint256"
        }
      ],
      "payable": false,
      "stateMutability": "view",
      "type": "function"
    },
    {
      "constant": false,
      "inputs": [
        {
          "name": "_recipient",
          "type": "address"
        }
      ],
      "name": "airdrop",
      "outputs": [
        {
          "name": "",
          "type": "bool"
        }
      ],
      "payable": false,
      "stateMutability": "nonpayable",
      "type": "function"
    },
    {
      "constant": false,
      "inputs": [
        {
          "name": "_newAddress",
          "type": "address"
        }
      ],
      "name": "changeTokenAddress",
      "outputs": [
        {
          "name": "",
          "type": "bool"
        }
      ],
      "payable": false,
      "stateMutability": "nonpayable",
      "type": "function"
    },
    {
      "constant": false,
      "inputs": [
        {
          "name": "_newAmount",
          "type": "uint256"
        }
      ],
      "name": "changeAmount",
      "outputs": [
        {
          "name": "",
          "type": "bool"
        }
      ],
      "payable": false,
      "stateMutability": "nonpayable",
      "type": "function"
    },
    {
      "constant": false,
      "inputs": [],
      "name": "ownerWithdraw",
      "outputs": [
        {
          "name": "",
          "type": "bool"
        }
      ],
      "payable": false,
      "stateMutability": "nonpayable",
      "type": "function"
    }
  ],
  "bytecode": "0x608060405260008060156101000a81548160ff02191690831515021790555034801561002a57600080fd5b50336000806101000a81548173ffffffffffffffffffffffffffffffffffffffff021916908373ffffffffffffffffffffffffffffffffffffffff1602179055507304d37d12f89813c2683e526d2dc2c54c6dbbdde7600260006101000a81548173ffffffffffffffffffffffffffffffffffffffff021916908373ffffffffffffffffffffffffffffffffffffffff1602179055506064600381905550600060048190555061193c806100df6000396000f3fe608060405234801561001057600080fd5b506004361061013e576000357c0100000000000000000000000000000000000000000000000000000000900480638ccdcfc6116100ca578063b187bd261161008e578063b187bd26146103eb578063bf5839031461040d578063c9cda91f1461042b578063f80f5dd514610487578063fc0c546a146104e35761013e565b80638ccdcfc6146102ff5780638da5cb5b14610309578063971a1ca214610353578063a6f9dae114610371578063aa8c217c146103cd5761013e565b80634c96f95a116101115780634c96f95a146101d55780635c320516146101f75780636f9170f61461023d57806378c8cda7146102995780638456cb59146102f55761013e565b806321860a05146101435780633f4ba83a1461019f57806340a3d246146101a95780634311de8f146101b3575b600080fd5b6101856004803603602081101561015957600080fd5b81019080803573ffffffffffffffffffffffffffffffffffffffff16906020019092919050505061052d565b604051808215151515815260200191505060405180910390f35b6101a7610a3b565b005b6101b1610b38565b005b6101bb610c1b565b604051808215151515815260200191505060405180910390f35b6101dd610fa3565b604051808215151515815260200191505060405180910390f35b6102236004803603602081101561020d57600080fd5b8101908080359060200190929190505050610fb6565b604051808215151515815260200191505060405180910390f35b61027f6004803603602081101561025357600080fd5b81019080803573ffffffffffffffffffffffffffffffffffffffff169060200190929190505050611075565b604051808215151515815260200191505060405180910390f35b6102db600480360360208110156102af57600080fd5b81019080803573ffffffffffffffffffffffffffffffffffffffff1690602001909291905050506110cb565b604051808215151515815260200191505060405180910390f35b6102fd6111e8565b005b6103076112e7565b005b6103116113c9565b604051808273ffffffffffffffffffffffffffffffffffffffff1673ffffffffffffffffffffffffffffffffffffffff16815260200191505060405180910390f35b61035b6113ee565b6040518082815260200191505060405180910390f35b6103b36004803603602081101561038757600080fd5b81019080803573ffffffffffffffffffffffffffffffffffffffff1690602001909291905050506113f8565b604051808215151515815260200191505060405180910390f35b6103d561149e565b6040518082815260200191505060405180910390f35b6103f36114a8565b604051808215151515815260200191505060405180910390f35b6104156114bb565b6040518082815260200191505060405180910390f35b61046d6004803603602081101561044157600080fd5b81019080803573ffffffffffffffffffffffffffffffffffffffff1690602001909291905050506115b8565b604051808215151515815260200191505060405180910390f35b6104c96004803603602081101561049d57600080fd5b81019080803573ffffffffffffffffffffffffffffffffffffffff1690602001909291905050506116c0565b604051808215151515815260200191505060405180910390f35b6104eb6117dc565b604051808273ffffffffffffffffffffffffffffffffffffffff1673ffffffffffffffffffffffffffffffffffffffff16815260200191505060405180910390f35b60008060009054906101000a900473ffffffffffffffffffffffffffffffffffffffff1673ffffffffffffffffffffffffffffffffffffffff163373ffffffffffffffffffffffffffffffffffffffff1614151561058a57600080fd5b600060149054906101000a900460ff161515156105a657600080fd5b816000600560008373ffffffffffffffffffffffffffffffffffffffff1673ffffffffffffffffffffffffffffffffffffffff16815260200190815260200160002054141515610641576040517f08c379a00000000000000000000000000000000000000000000000000000000081526004018080602001828103825260288152602001806118c66028913960400191505060405180910390fd5b3383600060159054906101000a900460ff16156107a157600160008373ffffffffffffffffffffffffffffffffffffffff1673ffffffffffffffffffffffffffffffffffffffff16815260200190815260200160002060009054906101000a900460ff1615156106fc576040517f08c379a000000000000000000000000000000000000000000000000000000000815260040180806020018281038252602181526020018061185d6021913960400191505060405180910390fd5b600160008273ffffffffffffffffffffffffffffffffffffffff1673ffffffffffffffffffffffffffffffffffffffff16815260200190815260200160002060009054906101000a900460ff1615156107a0576040517f08c379a000000000000000000000000000000000000000000000000000000000815260040180806020018281038252602381526020018061187e6023913960400191505060405180910390fd5b5b60006003541115156107fe576040517f08c379a00000000000000000000000000000000000000000000000000000000081526004018080602001828103825260238152602001806118ee6023913960400191505060405180910390fd5b61081d8573ffffffffffffffffffffffffffffffffffffffff16611806565b151515610875576040517f08c379a00000000000000000000000000000000000000000000000000000000081526004018080602001828103825260258152602001806118a16025913960400191505060405180910390fd5b600354600560008773ffffffffffffffffffffffffffffffffffffffff1673ffffffffffffffffffffffffffffffffffffffff168152602001908152602001600020819055506108d260035460045461181990919063ffffffff16565b600481905550600260009054906101000a900473ffffffffffffffffffffffffffffffffffffffff1673ffffffffffffffffffffffffffffffffffffffff1663a9059cbb866003546040518363ffffffff167c0100000000000000000000000000000000000000000000000000000000028152600401808373ffffffffffffffffffffffffffffffffffffffff1673ffffffffffffffffffffffffffffffffffffffff16815260200182815260200192505050602060405180830381600087803b15801561099f57600080fd5b505af11580156109b3573d6000803e3d6000fd5b505050506040513d60208110156109c957600080fd5b8101908080519060200190929190505050508473ffffffffffffffffffffffffffffffffffffffff167fe69743faae14a116f02d95e02349d413bae218cc8120aea49880e766ffba914d60035442604051808381526020018281526020019250505060405180910390a2505050919050565b6000809054906101000a900473ffffffffffffffffffffffffffffffffffffffff1673ffffffffffffffffffffffffffffffffffffffff163373ffffffffffffffffffffffffffffffffffffffff16141515610a9657600080fd5b600060149054906101000a900460ff161515610ab157600080fd5b60008060146101000a81548160ff0219169083151502179055507fe3338c1c649986dbdcc0a34160c789b50eda42615d8768c5b7518b40af6a80b23342604051808373ffffffffffffffffffffffffffffffffffffffff1673ffffffffffffffffffffffffffffffffffffffff1681526020018281526020019250505060405180910390a1565b6000809054906101000a900473ffffffffffffffffffffffffffffffffffffffff1673ffffffffffffffffffffffffffffffffffffffff163373ffffffffffffffffffffffffffffffffffffffff16141515610b9357600080fd5b6001600060156101000a81548160ff0219169083151502179055507ff227627cb39c815bb77f244f58827c5b94551ef0ded383a18f23950425d020773342604051808373ffffffffffffffffffffffffffffffffffffffff1673ffffffffffffffffffffffffffffffffffffffff1681526020018281526020019250505060405180910390a1565b60008060009054906101000a900473ffffffffffffffffffffffffffffffffffffffff1673ffffffffffffffffffffffffffffffffffffffff163373ffffffffffffffffffffffffffffffffffffffff16141515610c7857600080fd5b6000600260009054906101000a900473ffffffffffffffffffffffffffffffffffffffff1673ffffffffffffffffffffffffffffffffffffffff1663bed998506040518163ffffffff167c010000000000000000000000000000000000000000000000000000000002815260040160206040518083038186803b158015610cfe57600080fd5b505afa158015610d12573d6000803e3d6000fd5b505050506040513d6020811015610d2857600080fd5b810190808051906020019092919050505090506000610e4582600260009054906101000a900473ffffffffffffffffffffffffffffffffffffffff1673ffffffffffffffffffffffffffffffffffffffff166370a08231306040518263ffffffff167c0100000000000000000000000000000000000000000000000000000000028152600401808273ffffffffffffffffffffffffffffffffffffffff1673ffffffffffffffffffffffffffffffffffffffff16815260200191505060206040518083038186803b158015610dfc57600080fd5b505afa158015610e10573d6000803e3d6000fd5b505050506040513d6020811015610e2657600080fd5b810190808051906020019092919050505061183a90919063ffffffff16565b9050600260009054906101000a900473ffffffffffffffffffffffffffffffffffffffff1673ffffffffffffffffffffffffffffffffffffffff1663a9059cbb33836040518363ffffffff167c0100000000000000000000000000000000000000000000000000000000028152600401808373ffffffffffffffffffffffffffffffffffffffff1673ffffffffffffffffffffffffffffffffffffffff16815260200182815260200192505050602060405180830381600087803b158015610f0c57600080fd5b505af1158015610f20573d6000803e3d6000fd5b505050506040513d6020811015610f3657600080fd5b8101908080519060200190929190505050503373ffffffffffffffffffffffffffffffffffffffff167f6698b34e58de810255fac2d5a46303083fa93c8fccfee2ddd7d2fe0a346853708242604051808381526020018281526020019250505060405180910390a2505090565b600060159054906101000a900460ff1681565b60008060009054906101000a900473ffffffffffffffffffffffffffffffffffffffff1673ffffffffffffffffffffffffffffffffffffffff163373ffffffffffffffffffffffffffffffffffffffff1614151561101357600080fd5b816003819055503373ffffffffffffffffffffffffffffffffffffffff167f0cf6bba85b21bad480f1f5fbce0487630b8a2a2470ed912b8a0d796966a26abe8342604051808381526020018281526020019250505060405180910390a2919050565b6000600160008373ffffffffffffffffffffffffffffffffffffffff1673ffffffffffffffffffffffffffffffffffffffff16815260200190815260200160002060009054906101000a900460ff169050919050565b60008060009054906101000a900473ffffffffffffffffffffffffffffffffffffffff1673ffffffffffffffffffffffffffffffffffffffff163373ffffffffffffffffffffffffffffffffffffffff1614151561112857600080fd5b6000600160008473ffffffffffffffffffffffffffffffffffffffff1673ffffffffffffffffffffffffffffffffffffffff16815260200190815260200160002060006101000a81548160ff0219169083151502179055507f7cdb51b0cc2e541ad7e9471c358de415f5dbaff6cca78e3393d445346c610c1b82604051808273ffffffffffffffffffffffffffffffffffffffff1673ffffffffffffffffffffffffffffffffffffffff16815260200191505060405180910390a1919050565b6000809054906101000a900473ffffffffffffffffffffffffffffffffffffffff1673ffffffffffffffffffffffffffffffffffffffff163373ffffffffffffffffffffffffffffffffffffffff1614151561124357600080fd5b600060149054906101000a900460ff1615151561125f57600080fd5b6001600060146101000a81548160ff0219169083151502179055507f0cc81ffa7ae14c1e9e3f3a07c8ba11c5ce48258aca115fb150d8aea6d3095bd73342604051808373ffffffffffffffffffffffffffffffffffffffff1673ffffffffffffffffffffffffffffffffffffffff1681526020018281526020019250505060405180910390a1565b6000809054906101000a900473ffffffffffffffffffffffffffffffffffffffff1673ffffffffffffffffffffffffffffffffffffffff163373ffffffffffffffffffffffffffffffffffffffff1614151561134257600080fd5b60008060156101000a81548160ff0219169083151502179055507f0be306f026a048c530580fa13ffcf2937ded5f72e6d9acd02cdc4063562e1deb3342604051808373ffffffffffffffffffffffffffffffffffffffff1673ffffffffffffffffffffffffffffffffffffffff1681526020018281526020019250505060405180910390a1565b6000809054906101000a900473ffffffffffffffffffffffffffffffffffffffff1681565b6000600454905090565b60008060009054906101000a900473ffffffffffffffffffffffffffffffffffffffff1673ffffffffffffffffffffffffffffffffffffffff163373ffffffffffffffffffffffffffffffffffffffff1614151561145557600080fd5b816000806101000a81548173ffffffffffffffffffffffffffffffffffffffff021916908373ffffffffffffffffffffffffffffffffffffffff16021790555060019050919050565b6000600354905090565b600060149054906101000a900460ff1681565b6000600260009054906101000a900473ffffffffffffffffffffffffffffffffffffffff1673ffffffffffffffffffffffffffffffffffffffff166370a08231306040518263ffffffff167c0100000000000000000000000000000000000000000000000000000000028152600401808273ffffffffffffffffffffffffffffffffffffffff1673ffffffffffffffffffffffffffffffffffffffff16815260200191505060206040518083038186803b15801561157857600080fd5b505afa15801561158c573d6000803e3d6000fd5b505050506040513d60208110156115a257600080fd5b8101908080519060200190929190505050905090565b60008060009054906101000a900473ffffffffffffffffffffffffffffffffffffffff1673ffffffffffffffffffffffffffffffffffffffff163373ffffffffffffffffffffffffffffffffffffffff1614151561161557600080fd5b81600260006101000a81548173ffffffffffffffffffffffffffffffffffffffff021916908373ffffffffffffffffffffffffffffffffffffffff1602179055508173ffffffffffffffffffffffffffffffffffffffff163373ffffffffffffffffffffffffffffffffffffffff167f60471fa08a085e3a95ab544a22f7f4736f2c75cb37a8934751a308d63fea1629426040518082815260200191505060405180910390a3919050565b60008060009054906101000a900473ffffffffffffffffffffffffffffffffffffffff1673ffffffffffffffffffffffffffffffffffffffff163373ffffffffffffffffffffffffffffffffffffffff1614151561171d57600080fd5b60018060008473ffffffffffffffffffffffffffffffffffffffff1673ffffffffffffffffffffffffffffffffffffffff16815260200190815260200160002060006101000a81548160ff0219169083151502179055507faab7954e9d246b167ef88aeddad35209ca2489d95a8aeb59e288d9b19fae5a5482604051808273ffffffffffffffffffffffffffffffffffffffff1673ffffffffffffffffffffffffffffffffffffffff16815260200191505060405180910390a1919050565b6000600260009054906101000a900473ffffffffffffffffffffffffffffffffffffffff16905090565b600080823b905060008111915050919050565b600080828401905083811015151561183057600080fd5b8091505092915050565b600082821115151561184b57600080fd5b60008284039050809150509291505056fe53656e646572206163636f756e74206973206e6f742077686974656c69737465645265636569766572206163636f756e74206973206e6f742077686974656c6973746564526563697069656e742063616e6e6f74206265206120736d61727420636f6e74726163742e416464726573732068617320616c726561647920726563656976656420616e2061697264726f702e416d6f756e742073686f756c642062652067726561746572207468616e207a65726f2ea165627a7a72305820ed25dd3dcefd6ca4e68ea2bb6cc8c193d97647dd18774925c447344d0d4e38c30029",
  "source": "pragma solidity ^0.5.3;\n\nimport { Token } from \"./Token.sol\";\n// Libraries\nimport { SafeMath } from \"./SafeMath.sol\";\nimport { Whitelist } from \"./Whitelist.sol\";\nimport { Address } from \"./Address.sol\";\n// Inherited Contracts\nimport { Pausable } from \"./Pausable.sol\";\n\ncontract Airdrop is Pausable, Whitelist {\n    using SafeMath for uint256;\n    using Address for address;\n\n    address _token;\n    uint256 _amount;\n    uint256 _totalAirdrops;\n\n    mapping(address => uint256) private airdrops;\n\n    event GivenAirdrop(address indexed to, uint256 value, uint256 timestamp);\n    event AmountChanged(address indexed from, uint256 value, uint256 timestamp);\n    event TokenChanged(address indexed from, address indexed newAddress, uint256 timestamp);\n    event OwnerWithdrawn(address indexed from, uint256 value, uint256 timestamp);\n\n    constructor() public {\n        _token = 0x04D37d12f89813c2683e526d2DC2c54c6dbbDDe7;\n        _amount = 100;\n        _totalAirdrops = 0;\n    }\n\n    function token() external view returns (address) {\n        return _token;\n    }\n\n    function amount() external view returns (uint256) {\n        return _amount;\n    }\n\n    function totalAirdrops() external view returns (uint256) {\n        return _totalAirdrops;\n    }\n\n    function remainingTokens() external view returns (uint256) {\n        return Token(_token).balanceOf(address(this));\n    }\n\n    // Check if what makes more sense, push or pull. Right now is push.\n    // Push Model: We send the airdrop to them.\n    // Pull Model: They make the transaction and they receive the tokens. Problem: They pay for gas.\n    function airdrop(\n        address _recipient) external onlyOwner whenNotPaused newRecipient(_recipient)\n        onlyWhitelisted(msg.sender, _recipient) returns (bool) {\n        require(_amount > 0, \"Amount should be greater than zero.\");\n        require(!_recipient.isContract(), \"Recipient cannot be a smart contract.\"); // Prevent reentrancy attack\n        airdrops[_recipient] = _amount;\n        _totalAirdrops = _totalAirdrops.add(_amount);\n        Token(_token).transfer(_recipient, _amount);\n        emit GivenAirdrop(_recipient, _amount, now);\n    }\n\n    modifier newRecipient(address _recipient) {\n        require(airdrops[_recipient] == 0, \"Address has already received an airdrop.\");\n        _;\n    }\n\n    // Owner Functions\n\n    function changeTokenAddress(address _newAddress) external onlyOwner returns (bool) {\n        _token = _newAddress;\n        emit TokenChanged(msg.sender, _newAddress, now);\n    }\n\n    function changeAmount(uint256 _newAmount) external onlyOwner returns (bool) {\n        _amount = _newAmount;\n        emit AmountChanged(msg.sender, _newAmount, now);\n    }\n\n    // Withdraw Functions\n\n    // Owner withdraws all tokens here in the airdrop\n    function ownerWithdraw() external onlyOwner returns (bool) {\n        uint256 tokenBurnFee = Token(_token).burnRate();\n        uint256 airdropBalance = Token(_token).balanceOf(address(this)).sub(tokenBurnFee);\n        Token(_token).transfer(msg.sender, airdropBalance);\n        emit OwnerWithdrawn(msg.sender, airdropBalance, now);\n    }\n}",
  "sourcePath": "/Users/brentblockchaoin/Token/contracts/Airdrop.sol",
  "compiler": {
    "name": "solc",
    "version": "0.5.3+commit.10d17f24.Linux.g++"
  },
  "schemaVersion": "3.0.19",
  "updatedAt": "2019-12-12T14:07:01.129Z",
  "devdoc": {
    "methods": {}
  },
  "userdoc": {
    "methods": {}
  }
}