{
  "contractName": "Pausable",
  "abi": [
    {
      "constant": true,
      "inputs": [],
      "name": "owner",
      "outputs": [
        {
          "name": "",
          "type": "address"
        }
      ],
      "payable": false,
      "stateMutability": "view",
      "type": "function"
    },
    {
      "constant": false,
      "inputs": [
        {
          "name": "_newOwner",
          "type": "address"
        }
      ],
      "name": "changeOwner",
      "outputs": [
        {
          "name": "success",
          "type": "bool"
        }
      ],
      "payable": false,
      "stateMutability": "nonpayable",
      "type": "function"
    },
    {
      "constant": true,
      "inputs": [],
      "name": "isPaused",
      "outputs": [
        {
          "name": "",
          "type": "bool"
        }
      ],
      "payable": false,
      "stateMutability": "view",
      "type": "function"
    },
    {
      "anonymous": false,
      "inputs": [
        {
          "indexed": false,
          "name": "_owner",
          "type": "address"
        },
        {
          "indexed": false,
          "name": "_timestamp",
          "type": "uint256"
        }
      ],
      "name": "Pause",
      "type": "event"
    },
    {
      "anonymous": false,
      "inputs": [
        {
          "indexed": false,
          "name": "_owner",
          "type": "address"
        },
        {
          "indexed": false,
          "name": "_timestamp",
          "type": "uint256"
        }
      ],
      "name": "Unpause",
      "type": "event"
    },
    {
      "constant": false,
      "inputs": [],
      "name": "pause",
      "outputs": [],
      "payable": false,
      "stateMutability": "nonpayable",
      "type": "function"
    },
    {
      "constant": false,
      "inputs": [],
      "name": "unpause",
      "outputs": [],
      "payable": false,
      "stateMutability": "nonpayable",
      "type": "function"
    }
  ],
  "bytecode": "0x6080604052336000806101000a81548173ffffffffffffffffffffffffffffffffffffffff021916908373ffffffffffffffffffffffffffffffffffffffff160217905550610562806100536000396000f3fe608060405234801561001057600080fd5b5060043610610074576000357c0100000000000000000000000000000000000000000000000000000000900480633f4ba83a146100795780638456cb59146100835780638da5cb5b1461008d578063a6f9dae1146100d7578063b187bd2614610133575b600080fd5b610081610155565b005b61008b61029e565b005b6100956103e9565b604051808273ffffffffffffffffffffffffffffffffffffffff1673ffffffffffffffffffffffffffffffffffffffff16815260200191505060405180910390f35b610119600480360360208110156100ed57600080fd5b81019080803573ffffffffffffffffffffffffffffffffffffffff16906020019092919050505061040e565b604051808215151515815260200191505060405180910390f35b61013b610500565b604051808215151515815260200191505060405180910390f35b6000809054906101000a900473ffffffffffffffffffffffffffffffffffffffff1673ffffffffffffffffffffffffffffffffffffffff163373ffffffffffffffffffffffffffffffffffffffff161415156101fc576040517f08c379a00000000000000000000000000000000000000000000000000000000081526004018080602001828103825260238152602001806105146023913960400191505060405180910390fd5b600060149054906101000a900460ff16151561021757600080fd5b60008060146101000a81548160ff0219169083151502179055507fe3338c1c649986dbdcc0a34160c789b50eda42615d8768c5b7518b40af6a80b23342604051808373ffffffffffffffffffffffffffffffffffffffff1673ffffffffffffffffffffffffffffffffffffffff1681526020018281526020019250505060405180910390a1565b6000809054906101000a900473ffffffffffffffffffffffffffffffffffffffff1673ffffffffffffffffffffffffffffffffffffffff163373ffffffffffffffffffffffffffffffffffffffff16141515610345576040517f08c379a00000000000000000000000000000000000000000000000000000000081526004018080602001828103825260238152602001806105146023913960400191505060405180910390fd5b600060149054906101000a900460ff1615151561036157600080fd5b6001600060146101000a81548160ff0219169083151502179055507f0cc81ffa7ae14c1e9e3f3a07c8ba11c5ce48258aca115fb150d8aea6d3095bd73342604051808373ffffffffffffffffffffffffffffffffffffffff1673ffffffffffffffffffffffffffffffffffffffff1681526020018281526020019250505060405180910390a1565b6000809054906101000a900473ffffffffffffffffffffffffffffffffffffffff1681565b60008060009054906101000a900473ffffffffffffffffffffffffffffffffffffffff1673ffffffffffffffffffffffffffffffffffffffff163373ffffffffffffffffffffffffffffffffffffffff161415156104b7576040517f08c379a00000000000000000000000000000000000000000000000000000000081526004018080602001828103825260238152602001806105146023913960400191505060405180910390fd5b816000806101000a81548173ffffffffffffffffffffffffffffffffffffffff021916908373ffffffffffffffffffffffffffffffffffffffff16021790555060019050919050565b600060149054906101000a900460ff168156fe4f6e6c79206f776e65722063616e20706572666f726d207472616e73616374696f6e2ea165627a7a723058206f5e38c05d4f566e09737d85b622e0461b74666a216e515dde088135201b9a060029",
  "source": "pragma solidity ^0.5.3;\n\nimport { Owned } from \"./Ownable.sol\";\n\ncontract Pausable is Owned{\n    bool public isPaused;\n    \n    event Pause(address _owner, uint _timestamp);\n    event Unpause(address _owner, uint _timestamp);\n    \n    modifier whenPaused {\n        require(isPaused);\n        _;\n    }\n    \n    modifier whenNotPaused {\n        require(!isPaused);\n        _;\n    }\n    \n    function pause() public onlyOwner whenNotPaused {\n        isPaused = true;\n        emit Pause(msg.sender, now);\n    }\n    \n    function unpause() public onlyOwner whenPaused {\n        isPaused = false;\n        emit Unpause(msg.sender, now);\n    }\n}\n",
  "sourcePath": "/Users/brentblockchaoin/Token/contracts/Pausable.sol",
  "compiler": {
    "name": "solc",
    "version": "0.5.3+commit.10d17f24.Linux.g++"
  },
  "schemaVersion": "3.0.19",
  "updatedAt": "2019-12-19T05:37:50.168Z",
  "devdoc": {
    "methods": {}
  },
  "userdoc": {
    "methods": {}
  }
}