{
  "contractName": "Token",
  "abi": [
    {
      "constant": false,
      "inputs": [],
      "name": "unpause",
      "outputs": [],
      "payable": false,
      "stateMutability": "nonpayable",
      "type": "function"
    },
    {
      "constant": false,
      "inputs": [],
      "name": "toggle",
      "outputs": [],
      "payable": false,
      "stateMutability": "nonpayable",
      "type": "function"
    },
    {
      "constant": true,
      "inputs": [],
      "name": "whitelistToggle",
      "outputs": [
        {
          "name": "",
          "type": "bool"
        }
      ],
      "payable": false,
      "stateMutability": "view",
      "type": "function"
    },
    {
      "constant": true,
      "inputs": [
        {
          "name": "account",
          "type": "address"
        }
      ],
      "name": "isWhiteListed",
      "outputs": [
        {
          "name": "",
          "type": "bool"
        }
      ],
      "payable": false,
      "stateMutability": "view",
      "type": "function"
    },
    {
      "constant": false,
      "inputs": [
        {
          "name": "account",
          "type": "address"
        }
      ],
      "name": "removeWhitelist",
      "outputs": [
        {
          "name": "",
          "type": "bool"
        }
      ],
      "payable": false,
      "stateMutability": "nonpayable",
      "type": "function"
    },
    {
      "constant": false,
      "inputs": [],
      "name": "pause",
      "outputs": [],
      "payable": false,
      "stateMutability": "nonpayable",
      "type": "function"
    },
    {
      "constant": false,
      "inputs": [],
      "name": "untoggle",
      "outputs": [],
      "payable": false,
      "stateMutability": "nonpayable",
      "type": "function"
    },
    {
      "constant": true,
      "inputs": [],
      "name": "owner",
      "outputs": [
        {
          "name": "",
          "type": "address"
        }
      ],
      "payable": false,
      "stateMutability": "view",
      "type": "function"
    },
    {
      "constant": false,
      "inputs": [
        {
          "name": "_newOwner",
          "type": "address"
        }
      ],
      "name": "changeOwner",
      "outputs": [
        {
          "name": "success",
          "type": "bool"
        }
      ],
      "payable": false,
      "stateMutability": "nonpayable",
      "type": "function"
    },
    {
      "constant": true,
      "inputs": [],
      "name": "isPaused",
      "outputs": [
        {
          "name": "",
          "type": "bool"
        }
      ],
      "payable": false,
      "stateMutability": "view",
      "type": "function"
    },
    {
      "constant": false,
      "inputs": [
        {
          "name": "account",
          "type": "address"
        }
      ],
      "name": "addWhitelist",
      "outputs": [
        {
          "name": "",
          "type": "bool"
        }
      ],
      "payable": false,
      "stateMutability": "nonpayable",
      "type": "function"
    },
    {
      "inputs": [],
      "payable": false,
      "stateMutability": "nonpayable",
      "type": "constructor"
    },
    {
      "anonymous": false,
      "inputs": [
        {
          "indexed": true,
          "name": "from",
          "type": "address"
        },
        {
          "indexed": false,
          "name": "value",
          "type": "uint256"
        },
        {
          "indexed": false,
          "name": "timestamp",
          "type": "uint256"
        }
      ],
      "name": "Burned",
      "type": "event"
    },
    {
      "anonymous": false,
      "inputs": [
        {
          "indexed": true,
          "name": "from",
          "type": "address"
        },
        {
          "indexed": true,
          "name": "burner",
          "type": "address"
        },
        {
          "indexed": false,
          "name": "timestamp",
          "type": "uint256"
        }
      ],
      "name": "AssignedBurner",
      "type": "event"
    },
    {
      "anonymous": false,
      "inputs": [
        {
          "indexed": false,
          "name": "_owner",
          "type": "address"
        },
        {
          "indexed": false,
          "name": "_timestamp",
          "type": "uint256"
        }
      ],
      "name": "Pause",
      "type": "event"
    },
    {
      "anonymous": false,
      "inputs": [
        {
          "indexed": false,
          "name": "_owner",
          "type": "address"
        },
        {
          "indexed": false,
          "name": "_timestamp",
          "type": "uint256"
        }
      ],
      "name": "Unpause",
      "type": "event"
    },
    {
      "anonymous": false,
      "inputs": [
        {
          "indexed": false,
          "name": "account",
          "type": "address"
        }
      ],
      "name": "Whitelisted",
      "type": "event"
    },
    {
      "anonymous": false,
      "inputs": [
        {
          "indexed": false,
          "name": "account",
          "type": "address"
        }
      ],
      "name": "UnWhitelisted",
      "type": "event"
    },
    {
      "anonymous": false,
      "inputs": [
        {
          "indexed": false,
          "name": "sender",
          "type": "address"
        },
        {
          "indexed": false,
          "name": "timestamp",
          "type": "uint256"
        }
      ],
      "name": "ToggleWhitelist",
      "type": "event"
    },
    {
      "anonymous": false,
      "inputs": [
        {
          "indexed": false,
          "name": "sender",
          "type": "address"
        },
        {
          "indexed": false,
          "name": "timestamp",
          "type": "uint256"
        }
      ],
      "name": "UntoggleWhitelist",
      "type": "event"
    },
    {
      "anonymous": false,
      "inputs": [
        {
          "indexed": true,
          "name": "from",
          "type": "address"
        },
        {
          "indexed": true,
          "name": "to",
          "type": "address"
        },
        {
          "indexed": false,
          "name": "value",
          "type": "uint256"
        }
      ],
      "name": "Transfer",
      "type": "event"
    },
    {
      "anonymous": false,
      "inputs": [
        {
          "indexed": true,
          "name": "owner",
          "type": "address"
        },
        {
          "indexed": true,
          "name": "spender",
          "type": "address"
        },
        {
          "indexed": false,
          "name": "value",
          "type": "uint256"
        }
      ],
      "name": "Approval",
      "type": "event"
    },
    {
      "constant": true,
      "inputs": [],
      "name": "name",
      "outputs": [
        {
          "name": "",
          "type": "string"
        }
      ],
      "payable": false,
      "stateMutability": "view",
      "type": "function"
    },
    {
      "constant": true,
      "inputs": [],
      "name": "symbol",
      "outputs": [
        {
          "name": "",
          "type": "string"
        }
      ],
      "payable": false,
      "stateMutability": "view",
      "type": "function"
    },
    {
      "constant": true,
      "inputs": [],
      "name": "totalSupply",
      "outputs": [
        {
          "name": "",
          "type": "uint256"
        }
      ],
      "payable": false,
      "stateMutability": "view",
      "type": "function"
    },
    {
      "constant": true,
      "inputs": [],
      "name": "decimals",
      "outputs": [
        {
          "name": "",
          "type": "uint256"
        }
      ],
      "payable": false,
      "stateMutability": "view",
      "type": "function"
    },
    {
      "constant": true,
      "inputs": [
        {
          "name": "account",
          "type": "address"
        }
      ],
      "name": "balanceOf",
      "outputs": [
        {
          "name": "",
          "type": "uint256"
        }
      ],
      "payable": false,
      "stateMutability": "view",
      "type": "function"
    },
    {
      "constant": true,
      "inputs": [
        {
          "name": "owner",
          "type": "address"
        },
        {
          "name": "spender",
          "type": "address"
        }
      ],
      "name": "allowance",
      "outputs": [
        {
          "name": "",
          "type": "uint256"
        }
      ],
      "payable": false,
      "stateMutability": "view",
      "type": "function"
    },
    {
      "constant": false,
      "inputs": [
        {
          "name": "recipient",
          "type": "address"
        },
        {
          "name": "amount",
          "type": "uint256"
        }
      ],
      "name": "transfer",
      "outputs": [
        {
          "name": "",
          "type": "bool"
        }
      ],
      "payable": false,
      "stateMutability": "nonpayable",
      "type": "function"
    },
    {
      "constant": false,
      "inputs": [
        {
          "name": "spender",
          "type": "address"
        },
        {
          "name": "amount",
          "type": "uint256"
        }
      ],
      "name": "approve",
      "outputs": [
        {
          "name": "",
          "type": "bool"
        }
      ],
      "payable": false,
      "stateMutability": "nonpayable",
      "type": "function"
    },
    {
      "constant": false,
      "inputs": [
        {
          "name": "sender",
          "type": "address"
        },
        {
          "name": "recipient",
          "type": "address"
        },
        {
          "name": "amount",
          "type": "uint256"
        }
      ],
      "name": "transferFrom",
      "outputs": [
        {
          "name": "",
          "type": "bool"
        }
      ],
      "payable": false,
      "stateMutability": "nonpayable",
      "type": "function"
    },
    {
      "constant": true,
      "inputs": [],
      "name": "totalBurned",
      "outputs": [
        {
          "name": "",
          "type": "uint256"
        }
      ],
      "payable": false,
      "stateMutability": "view",
      "type": "function"
    },
    {
      "constant": false,
      "inputs": [
        {
          "name": "_newBurner",
          "type": "address"
        }
      ],
      "name": "addBurner",
      "outputs": [
        {
          "name": "",
          "type": "bool"
        }
      ],
      "payable": false,
      "stateMutability": "nonpayable",
      "type": "function"
    },
    {
      "constant": false,
      "inputs": [
        {
          "name": "_burnAmount",
          "type": "uint256"
        }
      ],
      "name": "burn",
      "outputs": [
        {
          "name": "",
          "type": "bool"
        }
      ],
      "payable": false,
      "stateMutability": "nonpayable",
      "type": "function"
    }
  ],
  "bytecode": "0x608060405260008060146101000a81548160ff0219169083151502179055503480156200002b57600080fd5b50336000806101000a81548173ffffffffffffffffffffffffffffffffffffffff021916908373ffffffffffffffffffffffffffffffffffffffff1602179055506040805190810160405280600b81526020017f43525950544f4255434b5300000000000000000000000000000000000000000081525060039080519060200190620000b9929190620001ff565b506040805190810160405280600681526020017f434255434b5300000000000000000000000000000000000000000000000000008152506004908051906020019062000107929190620001ff565b5064e8d4a5100060058190555060026006819055506000600781905550600554600860007306fa453ae3fd4f46f9e0d5a177f9e412e047a8db73ffffffffffffffffffffffffffffffffffffffff1673ffffffffffffffffffffffffffffffffffffffff168152602001908152602001600020819055507306fa453ae3fd4f46f9e0d5a177f9e412e047a8db73ffffffffffffffffffffffffffffffffffffffff163073ffffffffffffffffffffffffffffffffffffffff167fddf252ad1be2c89b69c2b068fc378daa952ba7f163c4a11628f55a4df523b3ef6005546040518082815260200191505060405180910390a3620002ae565b828054600181600116156101000203166002900490600052602060002090601f016020900481019282601f106200024257805160ff191683800117855562000273565b8280016001018555821562000273579182015b828111156200027257825182559160200191906001019062000255565b5b50905062000282919062000286565b5090565b620002ab91905b80821115620002a75760008160009055506001016200028d565b5090565b90565b6126c680620002be6000396000f3fe608060405234801561001057600080fd5b506004361061016a576000357c01000000000000000000000000000000000000000000000000000000009004806378c8cda7116100e0578063a9059cbb11610099578063a9059cbb146105e3578063b187bd2614610649578063d89135cd1461066b578063dd62ed3e14610689578063f44637ba14610701578063f80f5dd51461075d5761016a565b806378c8cda71461044a5780638456cb59146104a65780638ccdcfc6146104b05780638da5cb5b146104ba57806395d89b4114610504578063a6f9dae1146105875761016a565b80633f4ba83a116101325780633f4ba83a1461031a57806340a3d2461461032457806342966c681461032e5780634c96f95a146103745780636f9170f61461039657806370a08231146103f25761016a565b806306fdde031461016f578063095ea7b3146101f257806318160ddd1461025857806323b872dd14610276578063313ce567146102fc575b600080fd5b6101776107b9565b6040518080602001828103825283818151815260200191508051906020019080838360005b838110156101b757808201518184015260208101905061019c565b50505050905090810190601f1680156101e45780820380516001836020036101000a031916815260200191505b509250505060405180910390f35b61023e6004803603604081101561020857600080fd5b81019080803573ffffffffffffffffffffffffffffffffffffffff1690602001909291908035906020019092919050505061085b565b604051808215151515815260200191505060405180910390f35b610260610bba565b6040518082815260200191505060405180910390f35b6102e26004803603606081101561028c57600080fd5b81019080803573ffffffffffffffffffffffffffffffffffffffff169060200190929190803573ffffffffffffffffffffffffffffffffffffffff16906020019092919080359060200190929190505050610bc4565b604051808215151515815260200191505060405180910390f35b610304611142565b6040518082815260200191505060405180910390f35b61032261114c565b005b61032c611296565b005b61035a6004803603602081101561034457600080fd5b81019080803590602001909291905050506113c5565b604051808215151515815260200191505060405180910390f35b61037c611688565b604051808215151515815260200191505060405180910390f35b6103d8600480360360208110156103ac57600080fd5b81019080803573ffffffffffffffffffffffffffffffffffffffff16906020019092919050505061169b565b604051808215151515815260200191505060405180910390f35b6104346004803603602081101561040857600080fd5b81019080803573ffffffffffffffffffffffffffffffffffffffff1690602001909291905050506116f1565b6040518082815260200191505060405180910390f35b61048c6004803603602081101561046057600080fd5b81019080803573ffffffffffffffffffffffffffffffffffffffff16906020019092919050505061173a565b604051808215151515815260200191505060405180910390f35b6104ae6118a3565b005b6104b86119ee565b005b6104c2611b1c565b604051808273ffffffffffffffffffffffffffffffffffffffff1673ffffffffffffffffffffffffffffffffffffffff16815260200191505060405180910390f35b61050c611b41565b6040518080602001828103825283818151815260200191508051906020019080838360005b8381101561054c578082015181840152602081019050610531565b50505050905090810190601f1680156105795780820380516001836020036101000a031916815260200191505b509250505060405180910390f35b6105c96004803603602081101561059d57600080fd5b81019080803573ffffffffffffffffffffffffffffffffffffffff169060200190929190505050611be3565b604051808215151515815260200191505060405180910390f35b61062f600480360360408110156105f957600080fd5b81019080803573ffffffffffffffffffffffffffffffffffffffff16906020019092919080359060200190929190505050611cd5565b604051808215151515815260200191505060405180910390f35b6106516121b1565b604051808215151515815260200191505060405180910390f35b6106736121c4565b6040518082815260200191505060405180910390f35b6106eb6004803603604081101561069f57600080fd5b81019080803573ffffffffffffffffffffffffffffffffffffffff169060200190929190803573ffffffffffffffffffffffffffffffffffffffff1690602001909291905050506121ce565b6040518082815260200191505060405180910390f35b6107436004803603602081101561071757600080fd5b81019080803573ffffffffffffffffffffffffffffffffffffffff169060200190929190505050612255565b604051808215151515815260200191505060405180910390f35b61079f6004803603602081101561077357600080fd5b81019080803573ffffffffffffffffffffffffffffffffffffffff169060200190929190505050612488565b604051808215151515815260200191505060405180910390f35b606060038054600181600116156101000203166002900480601f0160208091040260200160405190810160405280929190818152602001828054600181600116156101000203166002900480156108515780601f1061082657610100808354040283529160200191610851565b820191906000526020600020905b81548152906001019060200180831161083457829003601f168201915b5050505050905090565b6000600260009054906101000a900460ff1615151561087957600080fd5b82600073ffffffffffffffffffffffffffffffffffffffff168173ffffffffffffffffffffffffffffffffffffffff161415151561091f576040517f08c379a000000000000000000000000000000000000000000000000000000000815260040180806020018281038252601b8152602001807f43616e6e6f742073656e6420746f2061646472657373203078302e000000000081525060200191505060405180910390fd5b838073ffffffffffffffffffffffffffffffffffffffff163373ffffffffffffffffffffffffffffffffffffffff16141515156109c4576040517f08c379a00000000000000000000000000000000000000000000000000000000081526004018080602001828103825260188152602001807f43616e6e6f742073656e6420746f20796f757273656c662e000000000000000081525060200191505060405180910390fd5b83600081111515610a3d576040517f08c379a000000000000000000000000000000000000000000000000000000000815260040180806020018281038252601e8152602001807f416d6f756e74206d7573742062652067726561746572207468616e20302e000081525060200191505060405180910390fd5b610acc85600960003373ffffffffffffffffffffffffffffffffffffffff1673ffffffffffffffffffffffffffffffffffffffff16815260200190815260200160002060008973ffffffffffffffffffffffffffffffffffffffff1673ffffffffffffffffffffffffffffffffffffffff168152602001908152602001600020546125f090919063ffffffff16565b600960003373ffffffffffffffffffffffffffffffffffffffff1673ffffffffffffffffffffffffffffffffffffffff16815260200190815260200160002060008873ffffffffffffffffffffffffffffffffffffffff1673ffffffffffffffffffffffffffffffffffffffff168152602001908152602001600020819055508573ffffffffffffffffffffffffffffffffffffffff163373ffffffffffffffffffffffffffffffffffffffff167f8c5be1e5ebec7d5bd14f71427d1e84f3dd0314c0f7b2291e5b200ac8c7c3b925876040518082815260200191505060405180910390a350505092915050565b6000600554905090565b6000600260009054906101000a900460ff16151515610be257600080fd5b82600073ffffffffffffffffffffffffffffffffffffffff168173ffffffffffffffffffffffffffffffffffffffff1614151515610c88576040517f08c379a000000000000000000000000000000000000000000000000000000000815260040180806020018281038252601b8152602001807f43616e6e6f742073656e6420746f2061646472657373203078302e000000000081525060200191505060405180910390fd5b838073ffffffffffffffffffffffffffffffffffffffff163373ffffffffffffffffffffffffffffffffffffffff1614151515610d2d576040517f08c379a00000000000000000000000000000000000000000000000000000000081526004018080602001828103825260188152602001807f43616e6e6f742073656e6420746f20796f757273656c662e000000000000000081525060200191505060405180910390fd5b83600081111515610da6576040517f08c379a000000000000000000000000000000000000000000000000000000000815260040180806020018281038252601e8152602001807f416d6f756e74206d7573742062652067726561746572207468616e20302e000081525060200191505060405180910390fd5b84600960008973ffffffffffffffffffffffffffffffffffffffff1673ffffffffffffffffffffffffffffffffffffffff16815260200190815260200160002060003373ffffffffffffffffffffffffffffffffffffffff1673ffffffffffffffffffffffffffffffffffffffff1681526020019081526020016000205410151515610e9a576040517f08c379a00000000000000000000000000000000000000000000000000000000081526004018080602001828103825260188152602001807f41626f7665207370656e64657220616c6c6f77616e63652e000000000000000081525060200191505060405180910390fd5b610f2985600960008a73ffffffffffffffffffffffffffffffffffffffff1673ffffffffffffffffffffffffffffffffffffffff16815260200190815260200160002060003373ffffffffffffffffffffffffffffffffffffffff1673ffffffffffffffffffffffffffffffffffffffff1681526020019081526020016000205461261190919063ffffffff16565b600960008973ffffffffffffffffffffffffffffffffffffffff1673ffffffffffffffffffffffffffffffffffffffff16815260200190815260200160002060003373ffffffffffffffffffffffffffffffffffffffff1673ffffffffffffffffffffffffffffffffffffffff16815260200190815260200160002081905550610ffb85600860008a73ffffffffffffffffffffffffffffffffffffffff1673ffffffffffffffffffffffffffffffffffffffff1681526020019081526020016000205461261190919063ffffffff16565b600860008973ffffffffffffffffffffffffffffffffffffffff1673ffffffffffffffffffffffffffffffffffffffff1681526020019081526020016000208190555061109085600860008973ffffffffffffffffffffffffffffffffffffffff1673ffffffffffffffffffffffffffffffffffffffff168152602001908152602001600020546125f090919063ffffffff16565b600860008873ffffffffffffffffffffffffffffffffffffffff1673ffffffffffffffffffffffffffffffffffffffff168152602001908152602001600020819055508573ffffffffffffffffffffffffffffffffffffffff168773ffffffffffffffffffffffffffffffffffffffff167fddf252ad1be2c89b69c2b068fc378daa952ba7f163c4a11628f55a4df523b3ef876040518082815260200191505060405180910390a35050509392505050565b6000600654905090565b6000809054906101000a900473ffffffffffffffffffffffffffffffffffffffff1673ffffffffffffffffffffffffffffffffffffffff163373ffffffffffffffffffffffffffffffffffffffff161415156111f3576040517f08c379a00000000000000000000000000000000000000000000000000000000081526004018080602001828103825260238152602001806126786023913960400191505060405180910390fd5b600260009054906101000a900460ff16151561120e57600080fd5b6000600260006101000a81548160ff0219169083151502179055507fe3338c1c649986dbdcc0a34160c789b50eda42615d8768c5b7518b40af6a80b23342604051808373ffffffffffffffffffffffffffffffffffffffff1673ffffffffffffffffffffffffffffffffffffffff1681526020018281526020019250505060405180910390a1565b6000809054906101000a900473ffffffffffffffffffffffffffffffffffffffff1673ffffffffffffffffffffffffffffffffffffffff163373ffffffffffffffffffffffffffffffffffffffff1614151561133d576040517f08c379a00000000000000000000000000000000000000000000000000000000081526004018080602001828103825260238152602001806126786023913960400191505060405180910390fd5b6001600060146101000a81548160ff0219169083151502179055507ff227627cb39c815bb77f244f58827c5b94551ef0ded383a18f23950425d020773342604051808373ffffffffffffffffffffffffffffffffffffffff1673ffffffffffffffffffffffffffffffffffffffff1681526020018281526020019250505060405180910390a1565b6000600260009054906101000a900460ff161515156113e357600080fd5b60011515600a60003373ffffffffffffffffffffffffffffffffffffffff1673ffffffffffffffffffffffffffffffffffffffff16815260200190815260200160002060009054906101000a900460ff1615151415156114ab576040517f08c379a00000000000000000000000000000000000000000000000000000000081526004018080602001828103825260178152602001807f53656e646572206973206e6f742061206275726e65722e00000000000000000081525060200191505060405180910390fd5b81600860003373ffffffffffffffffffffffffffffffffffffffff1673ffffffffffffffffffffffffffffffffffffffff1681526020019081526020016000205410151515611562576040517f08c379a00000000000000000000000000000000000000000000000000000000081526004018080602001828103825260208152602001807f417474656d7074656420746f206275726e2061626f76652062616c616e63652e81525060200191505060405180910390fd5b6115b482600860003373ffffffffffffffffffffffffffffffffffffffff1673ffffffffffffffffffffffffffffffffffffffff1681526020019081526020016000205461261190919063ffffffff16565b600860003373ffffffffffffffffffffffffffffffffffffffff1673ffffffffffffffffffffffffffffffffffffffff1681526020019081526020016000208190555061160c8260055461261190919063ffffffff16565b600581905550611627826007546125f090919063ffffffff16565b6007819055503373ffffffffffffffffffffffffffffffffffffffff167f23ff0e75edf108e3d0392d92e13e8c8a868ef19001bd49f9e94876dc46dff87f8342604051808381526020018281526020019250505060405180910390a2919050565b600060149054906101000a900460ff1681565b6000600160008373ffffffffffffffffffffffffffffffffffffffff1673ffffffffffffffffffffffffffffffffffffffff16815260200190815260200160002060009054906101000a900460ff169050919050565b6000600860008373ffffffffffffffffffffffffffffffffffffffff1673ffffffffffffffffffffffffffffffffffffffff168152602001908152602001600020549050919050565b60008060009054906101000a900473ffffffffffffffffffffffffffffffffffffffff1673ffffffffffffffffffffffffffffffffffffffff163373ffffffffffffffffffffffffffffffffffffffff161415156117e3576040517f08c379a00000000000000000000000000000000000000000000000000000000081526004018080602001828103825260238152602001806126786023913960400191505060405180910390fd5b6000600160008473ffffffffffffffffffffffffffffffffffffffff1673ffffffffffffffffffffffffffffffffffffffff16815260200190815260200160002060006101000a81548160ff0219169083151502179055507f7cdb51b0cc2e541ad7e9471c358de415f5dbaff6cca78e3393d445346c610c1b82604051808273ffffffffffffffffffffffffffffffffffffffff1673ffffffffffffffffffffffffffffffffffffffff16815260200191505060405180910390a1919050565b6000809054906101000a900473ffffffffffffffffffffffffffffffffffffffff1673ffffffffffffffffffffffffffffffffffffffff163373ffffffffffffffffffffffffffffffffffffffff1614151561194a576040517f08c379a00000000000000000000000000000000000000000000000000000000081526004018080602001828103825260238152602001806126786023913960400191505060405180910390fd5b600260009054906101000a900460ff1615151561196657600080fd5b6001600260006101000a81548160ff0219169083151502179055507f0cc81ffa7ae14c1e9e3f3a07c8ba11c5ce48258aca115fb150d8aea6d3095bd73342604051808373ffffffffffffffffffffffffffffffffffffffff1673ffffffffffffffffffffffffffffffffffffffff1681526020018281526020019250505060405180910390a1565b6000809054906101000a900473ffffffffffffffffffffffffffffffffffffffff1673ffffffffffffffffffffffffffffffffffffffff163373ffffffffffffffffffffffffffffffffffffffff16141515611a95576040517f08c379a00000000000000000000000000000000000000000000000000000000081526004018080602001828103825260238152602001806126786023913960400191505060405180910390fd5b60008060146101000a81548160ff0219169083151502179055507f0be306f026a048c530580fa13ffcf2937ded5f72e6d9acd02cdc4063562e1deb3342604051808373ffffffffffffffffffffffffffffffffffffffff1673ffffffffffffffffffffffffffffffffffffffff1681526020018281526020019250505060405180910390a1565b6000809054906101000a900473ffffffffffffffffffffffffffffffffffffffff1681565b606060048054600181600116156101000203166002900480601f016020809104026020016040519081016040528092919081815260200182805460018160011615610100020316600290048015611bd95780601f10611bae57610100808354040283529160200191611bd9565b820191906000526020600020905b815481529060010190602001808311611bbc57829003601f168201915b5050505050905090565b60008060009054906101000a900473ffffffffffffffffffffffffffffffffffffffff1673ffffffffffffffffffffffffffffffffffffffff163373ffffffffffffffffffffffffffffffffffffffff16141515611c8c576040517f08c379a00000000000000000000000000000000000000000000000000000000081526004018080602001828103825260238152602001806126786023913960400191505060405180910390fd5b816000806101000a81548173ffffffffffffffffffffffffffffffffffffffff021916908373ffffffffffffffffffffffffffffffffffffffff16021790555060019050919050565b6000600260009054906101000a900460ff16151515611cf357600080fd5b3383600060149054906101000a900460ff1615611e5357600160008373ffffffffffffffffffffffffffffffffffffffff1673ffffffffffffffffffffffffffffffffffffffff16815260200190815260200160002060009054906101000a900460ff161515611dae576040517f08c379a00000000000000000000000000000000000000000000000000000000081526004018080602001828103825260218152602001806126346021913960400191505060405180910390fd5b600160008273ffffffffffffffffffffffffffffffffffffffff1673ffffffffffffffffffffffffffffffffffffffff16815260200190815260200160002060009054906101000a900460ff161515611e52576040517f08c379a00000000000000000000000000000000000000000000000000000000081526004018080602001828103825260238152602001806126556023913960400191505060405180910390fd5b5b848073ffffffffffffffffffffffffffffffffffffffff163373ffffffffffffffffffffffffffffffffffffffff1614151515611ef8576040517f08c379a00000000000000000000000000000000000000000000000000000000081526004018080602001828103825260188152602001807f43616e6e6f742073656e6420746f20796f757273656c662e000000000000000081525060200191505060405180910390fd5b84600081111515611f71576040517f08c379a000000000000000000000000000000000000000000000000000000000815260040180806020018281038252601e8152602001807f416d6f756e74206d7573742062652067726561746572207468616e20302e000081525060200191505060405180910390fd5b86600073ffffffffffffffffffffffffffffffffffffffff168173ffffffffffffffffffffffffffffffffffffffff1614151515612017576040517f08c379a000000000000000000000000000000000000000000000000000000000815260040180806020018281038252601b8152602001807f43616e6e6f742073656e6420746f2061646472657373203078302e000000000081525060200191505060405180910390fd5b61206987600860003373ffffffffffffffffffffffffffffffffffffffff1673ffffffffffffffffffffffffffffffffffffffff1681526020019081526020016000205461261190919063ffffffff16565b600860003373ffffffffffffffffffffffffffffffffffffffff1673ffffffffffffffffffffffffffffffffffffffff168152602001908152602001600020819055506120fe87600860008b73ffffffffffffffffffffffffffffffffffffffff1673ffffffffffffffffffffffffffffffffffffffff168152602001908152602001600020546125f090919063ffffffff16565b600860008a73ffffffffffffffffffffffffffffffffffffffff1673ffffffffffffffffffffffffffffffffffffffff168152602001908152602001600020819055508773ffffffffffffffffffffffffffffffffffffffff163373ffffffffffffffffffffffffffffffffffffffff167fddf252ad1be2c89b69c2b068fc378daa952ba7f163c4a11628f55a4df523b3ef896040518082815260200191505060405180910390a3505050505092915050565b600260009054906101000a900460ff1681565b6000600754905090565b6000600960008473ffffffffffffffffffffffffffffffffffffffff1673ffffffffffffffffffffffffffffffffffffffff16815260200190815260200160002060008373ffffffffffffffffffffffffffffffffffffffff1673ffffffffffffffffffffffffffffffffffffffff16815260200190815260200160002054905092915050565b60008060009054906101000a900473ffffffffffffffffffffffffffffffffffffffff1673ffffffffffffffffffffffffffffffffffffffff163373ffffffffffffffffffffffffffffffffffffffff161415156122fe576040517f08c379a00000000000000000000000000000000000000000000000000000000081526004018080602001828103825260238152602001806126786023913960400191505060405180910390fd5b60001515600a60008473ffffffffffffffffffffffffffffffffffffffff1673ffffffffffffffffffffffffffffffffffffffff16815260200190815260200160002060009054906101000a900460ff1615151415156123c6576040517f08c379a000000000000000000000000000000000000000000000000000000000815260040180806020018281038252601c8152602001807f4164647265737320697320616c72656164792061206275726e65722e0000000081525060200191505060405180910390fd5b6001600a60008473ffffffffffffffffffffffffffffffffffffffff1673ffffffffffffffffffffffffffffffffffffffff16815260200190815260200160002060006101000a81548160ff0219169083151502179055508173ffffffffffffffffffffffffffffffffffffffff163373ffffffffffffffffffffffffffffffffffffffff167f648a3e9a56420e48bd08490aa631633cb2616734219c6c50e44cbdb910f21258426040518082815260200191505060405180910390a3919050565b60008060009054906101000a900473ffffffffffffffffffffffffffffffffffffffff1673ffffffffffffffffffffffffffffffffffffffff163373ffffffffffffffffffffffffffffffffffffffff16141515612531576040517f08c379a00000000000000000000000000000000000000000000000000000000081526004018080602001828103825260238152602001806126786023913960400191505060405180910390fd5b60018060008473ffffffffffffffffffffffffffffffffffffffff1673ffffffffffffffffffffffffffffffffffffffff16815260200190815260200160002060006101000a81548160ff0219169083151502179055507faab7954e9d246b167ef88aeddad35209ca2489d95a8aeb59e288d9b19fae5a5482604051808273ffffffffffffffffffffffffffffffffffffffff1673ffffffffffffffffffffffffffffffffffffffff16815260200191505060405180910390a1919050565b600080828401905083811015151561260757600080fd5b8091505092915050565b600082821115151561262257600080fd5b60008284039050809150509291505056fe53656e646572206163636f756e74206973206e6f742077686974656c69737465645265636569766572206163636f756e74206973206e6f742077686974656c69737465644f6e6c79206f776e65722063616e20706572666f726d207472616e73616374696f6e2ea165627a7a72305820d7b98ee6da4ab5e80aa799e845b123165ede169bebb486386d0866cf0b6343170029",
  "source": "pragma solidity ^0.5.3;\n\n// ----------------------------------------------------------------------------\n// 'CRYPTOBUCKS' Token Contract\n//\n// Deployed To : 0x4d9ee34b7ee0d3cef04e5909c27a266e7eb14712\n// Symbol      : CBUCKS\n// Name        : CRYPTOBUCKS\n// Total Supply: 10,000,000,000 CBUCKS\n// Decimals    : 2\n//\n// (c) By 'ANONYMOUS' With 'CBUCKS' Symbol 2019.\n//\n// ----------------------------------------------------------------------------\n\n// Interfaces\nimport { IERC20Token } from \"./iERC20Token.sol\";\n// Libraries\nimport { SafeMath } from \"./SafeMath.sol\";\nimport { Whitelist } from \"./Whitelist.sol\";\nimport { Address } from \"./Address.sol\";\n// Inherited Contracts\nimport { Pausable } from \"./Pausable.sol\";\n\ncontract Token is IERC20Token, Whitelist, Pausable {\n  using SafeMath for uint256;\n  using Address for address;\n\n  string _name;\n  string _symbol;\n  uint256 _totalSupply;\n  uint256 _decimals;\n  uint256 _totalBurned;\n\n  constructor () public {\n    _name = \"CRYPTOBUCKS\";\n    _symbol = \"CBUCKS\";\n    _totalSupply = 1000000000000;\n    _decimals = 2;\n    _totalBurned = 0;\n    balances[0x06fa453ae3FD4F46f9e0d5a177F9e412e047a8DB] = _totalSupply;\n    emit Transfer(address(this), 0x06fa453ae3FD4F46f9e0d5a177F9e412e047a8DB, _totalSupply);\n  }\n\n  mapping(address => uint256) private balances;\n  mapping(address => mapping(address => uint256)) private allowed;\n  mapping(address => bool) private burners;\n\n  event Burned(address indexed from, uint256 value, uint256 timestamp);\n  event AssignedBurner(address indexed from, address indexed burner, uint256 timestamp);\n\n  function name() external view returns (string memory) {\n    return _name;\n  }\n\n  function symbol() external view returns (string memory) {\n    return _symbol;\n  }\n\n  function totalSupply() external view returns (uint256) {\n    return _totalSupply;\n  }\n\n  function decimals() external view returns (uint256) {\n    return _decimals;\n  }\n\n  function balanceOf(address account) external view returns (uint256) {\n    return balances[account];\n  }\n\n  function allowance(address owner, address spender) external view returns (uint256) {\n    return allowed[owner][spender];\n  }\n\n  function transfer(\n    address recipient,\n    uint256 amount\n    ) external whenNotPaused onlyWhitelisted(msg.sender, recipient) validRecipient(recipient)\n    validAmount(amount) validAddress(recipient) returns (bool) {\n      balances[msg.sender] = balances[msg.sender].sub(amount);\n      balances[recipient] = balances[recipient].add(amount);\n      emit Transfer(msg.sender, recipient, amount);\n  }\n\n  function approve(\n    address spender,\n    uint256 amount\n    ) external whenNotPaused validAddress(spender) validRecipient(spender)\n    validAmount(amount) returns (bool) {\n    allowed[msg.sender][spender] = allowed[msg.sender][spender].add(amount);\n    emit Approval(msg.sender, spender, amount);\n  }\n\n  function transferFrom(\n    address sender,\n    address recipient,\n    uint256 amount\n    ) external whenNotPaused validAddress(recipient) validRecipient(recipient)\n    validAmount(amount) returns (bool) {\n      require(allowed[sender][msg.sender] >= amount, \"Above spender allowance.\");\n      allowed[sender][msg.sender] = allowed[sender][msg.sender].sub(amount);\n      balances[sender] = balances[sender].sub(amount);\n      balances[recipient] = balances[recipient].add(amount);\n      emit Transfer(sender, recipient, amount);\n    }\n\n  modifier validAddress(address _address) {\n    require(_address != address(0), \"Cannot send to address 0x0.\");\n    _;\n  }\n\n  modifier validAmount(uint256 _amount) {\n    require(_amount > 0, \"Amount must be greater than 0.\");\n    _;\n  }\n\n  modifier validRecipient(address _address) {\n    require(msg.sender != _address, \"Cannot send to yourself.\");\n    _;\n  }\n\n  // BURN FUNCTIONALITIES\n\n  function totalBurned() external view returns (uint256) {\n    return _totalBurned;\n  }\n  \n  function addBurner(address _newBurner) external onlyOwner returns (bool) {\n    require(burners[_newBurner] == false, \"Address is already a burner.\");\n    burners[_newBurner] = true;\n    emit AssignedBurner(msg.sender, _newBurner, now);\n  }\n\n  modifier onlyBurner() {\n    require(burners[msg.sender] == true, \"Sender is not a burner.\");\n    _;\n  }\n\n  function burn(\n    uint256 _burnAmount\n  ) external whenNotPaused onlyBurner returns (bool) {\n      require(balances[msg.sender] >= _burnAmount, \"Attempted to burn above balance.\");\n      balances[msg.sender] = balances[msg.sender].sub(_burnAmount);\n      _totalSupply = _totalSupply.sub(_burnAmount);\n      _totalBurned = _totalBurned.add(_burnAmount);\n      emit Burned(msg.sender, _burnAmount, now);\n  }\n}",
  "sourcePath": "/Users/brentblockchaoin/Token/contracts/Token.sol",
  "compiler": {
    "name": "solc",
    "version": "0.5.3+commit.10d17f24.Linux.g++"
  },
  "schemaVersion": "3.0.19",
  "updatedAt": "2019-12-29T07:32:20.875Z",
  "networkType": "ethereum",
  "devdoc": {
    "methods": {}
  },
  "userdoc": {
    "methods": {}
  }
}