{
  "contractName": "Whitelist",
  "abi": [
    {
      "constant": true,
      "inputs": [],
      "name": "whitelistToggle",
      "outputs": [
        {
          "name": "",
          "type": "bool"
        }
      ],
      "payable": false,
      "stateMutability": "view",
      "type": "function"
    },
    {
      "constant": true,
      "inputs": [],
      "name": "owner",
      "outputs": [
        {
          "name": "",
          "type": "address"
        }
      ],
      "payable": false,
      "stateMutability": "view",
      "type": "function"
    },
    {
      "constant": false,
      "inputs": [
        {
          "name": "_newOwner",
          "type": "address"
        }
      ],
      "name": "changeOwner",
      "outputs": [
        {
          "name": "success",
          "type": "bool"
        }
      ],
      "payable": false,
      "stateMutability": "nonpayable",
      "type": "function"
    },
    {
      "anonymous": false,
      "inputs": [
        {
          "indexed": false,
          "name": "account",
          "type": "address"
        }
      ],
      "name": "Whitelisted",
      "type": "event"
    },
    {
      "anonymous": false,
      "inputs": [
        {
          "indexed": false,
          "name": "account",
          "type": "address"
        }
      ],
      "name": "UnWhitelisted",
      "type": "event"
    },
    {
      "anonymous": false,
      "inputs": [
        {
          "indexed": false,
          "name": "sender",
          "type": "address"
        },
        {
          "indexed": false,
          "name": "timestamp",
          "type": "uint256"
        }
      ],
      "name": "ToggleWhitelist",
      "type": "event"
    },
    {
      "anonymous": false,
      "inputs": [
        {
          "indexed": false,
          "name": "sender",
          "type": "address"
        },
        {
          "indexed": false,
          "name": "timestamp",
          "type": "uint256"
        }
      ],
      "name": "UntoggleWhitelist",
      "type": "event"
    },
    {
      "constant": false,
      "inputs": [
        {
          "name": "account",
          "type": "address"
        }
      ],
      "name": "addWhitelist",
      "outputs": [
        {
          "name": "",
          "type": "bool"
        }
      ],
      "payable": false,
      "stateMutability": "nonpayable",
      "type": "function"
    },
    {
      "constant": false,
      "inputs": [
        {
          "name": "account",
          "type": "address"
        }
      ],
      "name": "removeWhitelist",
      "outputs": [
        {
          "name": "",
          "type": "bool"
        }
      ],
      "payable": false,
      "stateMutability": "nonpayable",
      "type": "function"
    },
    {
      "constant": false,
      "inputs": [],
      "name": "toggle",
      "outputs": [],
      "payable": false,
      "stateMutability": "nonpayable",
      "type": "function"
    },
    {
      "constant": false,
      "inputs": [],
      "name": "untoggle",
      "outputs": [],
      "payable": false,
      "stateMutability": "nonpayable",
      "type": "function"
    },
    {
      "constant": true,
      "inputs": [
        {
          "name": "account",
          "type": "address"
        }
      ],
      "name": "isWhiteListed",
      "outputs": [
        {
          "name": "",
          "type": "bool"
        }
      ],
      "payable": false,
      "stateMutability": "view",
      "type": "function"
    }
  ],
  "bytecode": "0x608060405260008060146101000a81548160ff021916908315150217905550336000806101000a81548173ffffffffffffffffffffffffffffffffffffffff021916908373ffffffffffffffffffffffffffffffffffffffff1602179055506109978061006d6000396000f3fe608060405234801561001057600080fd5b50600436106100a5576000357c0100000000000000000000000000000000000000000000000000000000900480638ccdcfc6116100785780638ccdcfc61461018e5780638da5cb5b14610198578063a6f9dae1146101e2578063f80f5dd51461023e576100a5565b806340a3d246146100aa5780634c96f95a146100b45780636f9170f6146100d657806378c8cda714610132575b600080fd5b6100b261029a565b005b6100bc6103c9565b604051808215151515815260200191505060405180910390f35b610118600480360360208110156100ec57600080fd5b81019080803573ffffffffffffffffffffffffffffffffffffffff1690602001909291905050506103dc565b604051808215151515815260200191505060405180910390f35b6101746004803603602081101561014857600080fd5b81019080803573ffffffffffffffffffffffffffffffffffffffff169060200190929190505050610432565b604051808215151515815260200191505060405180910390f35b61019661059b565b005b6101a06106c9565b604051808273ffffffffffffffffffffffffffffffffffffffff1673ffffffffffffffffffffffffffffffffffffffff16815260200191505060405180910390f35b610224600480360360208110156101f857600080fd5b81019080803573ffffffffffffffffffffffffffffffffffffffff1690602001909291905050506106ee565b604051808215151515815260200191505060405180910390f35b6102806004803603602081101561025457600080fd5b81019080803573ffffffffffffffffffffffffffffffffffffffff1690602001909291905050506107e0565b604051808215151515815260200191505060405180910390f35b6000809054906101000a900473ffffffffffffffffffffffffffffffffffffffff1673ffffffffffffffffffffffffffffffffffffffff163373ffffffffffffffffffffffffffffffffffffffff16141515610341576040517f08c379a00000000000000000000000000000000000000000000000000000000081526004018080602001828103825260238152602001806109496023913960400191505060405180910390fd5b6001600060146101000a81548160ff0219169083151502179055507ff227627cb39c815bb77f244f58827c5b94551ef0ded383a18f23950425d020773342604051808373ffffffffffffffffffffffffffffffffffffffff1673ffffffffffffffffffffffffffffffffffffffff1681526020018281526020019250505060405180910390a1565b600060149054906101000a900460ff1681565b6000600160008373ffffffffffffffffffffffffffffffffffffffff1673ffffffffffffffffffffffffffffffffffffffff16815260200190815260200160002060009054906101000a900460ff169050919050565b60008060009054906101000a900473ffffffffffffffffffffffffffffffffffffffff1673ffffffffffffffffffffffffffffffffffffffff163373ffffffffffffffffffffffffffffffffffffffff161415156104db576040517f08c379a00000000000000000000000000000000000000000000000000000000081526004018080602001828103825260238152602001806109496023913960400191505060405180910390fd5b6000600160008473ffffffffffffffffffffffffffffffffffffffff1673ffffffffffffffffffffffffffffffffffffffff16815260200190815260200160002060006101000a81548160ff0219169083151502179055507f7cdb51b0cc2e541ad7e9471c358de415f5dbaff6cca78e3393d445346c610c1b82604051808273ffffffffffffffffffffffffffffffffffffffff1673ffffffffffffffffffffffffffffffffffffffff16815260200191505060405180910390a1919050565b6000809054906101000a900473ffffffffffffffffffffffffffffffffffffffff1673ffffffffffffffffffffffffffffffffffffffff163373ffffffffffffffffffffffffffffffffffffffff16141515610642576040517f08c379a00000000000000000000000000000000000000000000000000000000081526004018080602001828103825260238152602001806109496023913960400191505060405180910390fd5b60008060146101000a81548160ff0219169083151502179055507f0be306f026a048c530580fa13ffcf2937ded5f72e6d9acd02cdc4063562e1deb3342604051808373ffffffffffffffffffffffffffffffffffffffff1673ffffffffffffffffffffffffffffffffffffffff1681526020018281526020019250505060405180910390a1565b6000809054906101000a900473ffffffffffffffffffffffffffffffffffffffff1681565b60008060009054906101000a900473ffffffffffffffffffffffffffffffffffffffff1673ffffffffffffffffffffffffffffffffffffffff163373ffffffffffffffffffffffffffffffffffffffff16141515610797576040517f08c379a00000000000000000000000000000000000000000000000000000000081526004018080602001828103825260238152602001806109496023913960400191505060405180910390fd5b816000806101000a81548173ffffffffffffffffffffffffffffffffffffffff021916908373ffffffffffffffffffffffffffffffffffffffff16021790555060019050919050565b60008060009054906101000a900473ffffffffffffffffffffffffffffffffffffffff1673ffffffffffffffffffffffffffffffffffffffff163373ffffffffffffffffffffffffffffffffffffffff16141515610889576040517f08c379a00000000000000000000000000000000000000000000000000000000081526004018080602001828103825260238152602001806109496023913960400191505060405180910390fd5b60018060008473ffffffffffffffffffffffffffffffffffffffff1673ffffffffffffffffffffffffffffffffffffffff16815260200190815260200160002060006101000a81548160ff0219169083151502179055507faab7954e9d246b167ef88aeddad35209ca2489d95a8aeb59e288d9b19fae5a5482604051808273ffffffffffffffffffffffffffffffffffffffff1673ffffffffffffffffffffffffffffffffffffffff16815260200191505060405180910390a191905056fe4f6e6c79206f776e65722063616e20706572666f726d207472616e73616374696f6e2ea165627a7a72305820d3f9f5c2207657f9afdb6c552cf23557d49f3b6a1c79869532ebaabe6e254e570029",
  "source": "pragma solidity ^0.5.3;\n\nimport { Owned } from \"./Ownable.sol\";\n\ncontract Whitelist is Owned{\n    \n    bool public whitelistToggle = false;\n    \n    mapping(address => bool) whitelistedAccounts;\n    \n    modifier onlyWhitelisted(address from, address to) {\n        if(whitelistToggle){\n            require(whitelistedAccounts[from], \"Sender account is not whitelisted\");\n            require(whitelistedAccounts[to], \"Receiver account is not whitelisted\");\n        }\n        _;\n    }\n    \n    event Whitelisted(address account);\n    event UnWhitelisted(address account);\n    \n    event ToggleWhitelist(address sender, uint timestamp);\n    event UntoggleWhitelist(address sender, uint timestamp);\n    \n    function addWhitelist(address account) public onlyOwner returns(bool) {\n        whitelistedAccounts[account] = true;\n        emit Whitelisted(account);\n    }\n        \n    function removeWhitelist(address account) public onlyOwner returns(bool) {\n        whitelistedAccounts[account] = false;\n        emit UnWhitelisted(account);\n    }\n    \n    function toggle() external onlyOwner {\n        whitelistToggle = true;\n        emit ToggleWhitelist(msg.sender, now);\n    }\n    \n    function untoggle() external onlyOwner {\n        whitelistToggle = false;\n        emit UntoggleWhitelist(msg.sender, now);\n    }\n    \n    function isWhiteListed(address account) public view returns(bool){\n        return whitelistedAccounts[account];\n    }\n    \n}\n",
  "sourcePath": "/Users/brentblockchaoin/Token/contracts/Whitelist.sol",
  "compiler": {
    "name": "solc",
    "version": "0.5.3+commit.10d17f24.Linux.g++"
  },
  "schemaVersion": "3.0.19",
  "updatedAt": "2019-12-19T05:37:50.184Z",
  "devdoc": {
    "methods": {}
  },
  "userdoc": {
    "methods": {}
  }
}